:100000000C9462000C948A000C948A000C94B90A37
:100010000C94900A0C94670A0C948A000C948A0041
:100020000C948A000C948A000C948A000C948A0028
:100030000C948A000C948A000C948A000C948A0018
:100040000C94C5090C948A000C94350A0C940F0A80
:100050000C948A000C948A000C948A000C948A00F8
:100060000C948A000C948A000000000024002700F1
:100070002A0000000000250028002B0000000000DE
:1000800023002600290004040404040404040202DA
:100090000202020203030303030301020408102007
:1000A0004080010204081020010204081020000012
:1000B0000008000201000003040700000000000027
:1000C0000000E20A11241FBECFEFD8E0DEBFCDBF93
:1000D00023E0A8ECB1E001C01D92AE3EB207E1F70B
:1000E00011E0A0E0B1E0EAEBF5E202C005900D926C
:1000F000A83CB107D9F710E0C2E6D0E004C02197D0
:10010000FE010E94640FC136D107C9F70E94F50BAA
:100110000C94DB120C940000CF92DF92EF92FF92CE
:100120006B017C01E091F501F091F60182E08083A2
:10013000C11481EED806E104F104A1F060E079E099
:100140008DE390E0A70196010E94F10E2150310944
:10015000410951095695479537952795211580E115
:100160003807A8F0E091F501F091F601108260E8FF
:1001700074E88EE190E0A70196010E94F10E2150F3
:100180003109410951095695479537952795E091D1
:10019000F101F091F2013083E091F301F091F4016B
:1001A00020831092FD01E091F901F091FA0186E0BF
:1001B0008083E091F701F091F80180818061808374
:1001C000E091F701F091F801808188608083E091EF
:1001D000F701F091F801808180688083E091F70158
:1001E000F091F80180818F7D8083FF90EF90DF9008
:1001F000CF900895833081F028F4813099F08230D7
:10020000A9F008958730A9F08830C9F08430B1F49E
:10021000809180008F7D03C0809180008F778093D4
:100220008000089584B58F7784BD089584B58F7D4F
:10023000FBCF8091B0008F778093B00008958091BC
:10024000B0008F7DF9CFCF93DF93282F30E0F901F5
:10025000E255FF4F8491F901E656FF4FD491F90121
:10026000EA57FF4FC491CC23A1F081110E94FA00FC
:10027000EC2FF0E0EE0FFF1FE458FF4FA591B49173
:10028000EC91ED2381E090E009F480E0DF91CF91E3
:10029000089580E090E0FACF1F93CF93DF93282F4B
:1002A00030E0F901E255FF4F8491F901E656FF4F26
:1002B000D491F901EA57FF4FC491CC23A9F0162F2E
:1002C00081110E94FA00EC2FF0E0EE0FFF1FEE58B4
:1002D000FF4FA591B4918FB7F894EC91111108C01C
:1002E000D095DE23DC938FBFDF91CF911F910895CE
:1002F000DE2BF8CFCF93DF9390E0FC01E656FF4F63
:1003000024918A579F4FFC0184918823D1F090E07B
:10031000880F991FFC01E859FF4FA591B491FC018A
:10032000EE58FF4FC591D491623071F49FB7F894A5
:100330003C91822F809583238C93E8812E2B2883F8
:100340009FBFDF91CF9108958FB7F894EC912E2B3A
:100350002C938FBFF6CF2FB7F8946091E101709185
:10036000E2018091E3019091E4012FBF0895AF92E3
:10037000BF92CF92DF92EF92FF920F931F93CF9392
:10038000DF936C017B018B01040F151FEB015E01F4
:10039000AE18BF08C017D10759F06991D601ED9189
:1003A000FC910190F081E02DC6010995892B79F728
:1003B000C501DF91CF911F910F91FF90EF90DF90DA
:1003C000CF90BF90AF900895FC01538D448D252FA1
:1003D00030E0842F90E0821B930B541710F0CF96DF
:1003E000089501970895FC01918D828D981761F011
:1003F000A28DAE0FBF2FB11D5D968C91928D9F5F28
:100400009F73928F90E008958FEF9FEF0895FC0106
:10041000918D828D981731F0828DE80FF11D858DB9
:1004200090E008958FEF9FEF0895FC01918D228D4C
:10043000892F90E0805C9F4F821B91098F739927D1
:10044000089585EE91E00E94150221E0892B09F4C0
:1004500020E0822F0895FC01A48DA80FB92FB11DB3
:10046000A35ABF4F2C91848D90E001968F739927EA
:10047000848FA689B7892C93A089B1898C918370C8
:1004800080648C93938D848D981306C00288F389C1
:10049000E02D80818F7D80830895EF92FF920F93EE
:1004A0001F93CF93DF93EC0181E0888F9B8D8C8D20
:1004B00098131AC0E889F989808185FF15C09FB714
:1004C000F894EE89FF896083E889F98980818370D7
:1004D000806480839FBF81E090E0DF91CF911F9186
:1004E0000F91FF90EF900895F62E0B8D10E00F5FA7
:1004F0001F4F0F731127E02E8C8D8E110CC00FB67D
:1005000007FCFACFE889F989808185FFF5CFCE0114
:100510000E942B02F1CFEB8DEC0FFD2FF11DE35A62
:10052000FF4FF0829FB7F8940B8FEA89FB89808197
:100530008062CFCF682F85EE91E00C944D02CF936F
:10054000DF93EC01888D8823B9F0AA89BB89E889FB
:10055000F9898C9185FD03C0808186FD0DC00FB6A1
:1005600007FCF7CF8C9185FFF2CF808185FFEDCF1F
:10057000CE010E942B02E9CFDF91CF91089580E058
:1005800090E0892B29F00E94210281110C94000037
:100590000895862F0C949A0285EE91E00C94F30155
:1005A00085EE91E00C941502CB01BA010C948C00FD
:1005B0000F931F93CF93DF93EB01FC010281138113
:1005C00061E0802F0E947A01209741F460E0802F43
:1005D000DF91CF911F910F910C944C01CF3FD1052A
:1005E00011F461E0F4CFF801FF27E255FF4FE491E9
:1005F000E33039F140F4E130B1F0E230E9F0C038F5
:10060000D1057CF7E3CFE73031F1E83061F1E43038
:10061000B1F780918000806280938000D0938B003E
:10062000C0938A0004C084B5806884BDC7BDDF91D3
:10063000CF911F910F91089584B5806284BDC8BD8C
:10064000F6CF80918000806880938000D0938900ED
:10065000C0938800ECCF8091B00080688093B00098
:10066000C093B300E4CF8091B00080628093B0006B
:10067000C093B400DCCF61E0FC0182810C947A016C
:100680004F925F926F927F928F929F92AF92BF92A2
:10069000CF92DF92EF92FF920F931F93CF93DF934E
:1006A000EC018B014A0189899A896B01C81AD90A20
:1006B000ED84FE84EC18FD08AF84B888A881B98168
:1006C00097010E94320F2B013C018D899E89A60162
:1006D000481B590B2A813B81429FC001439F900DCB
:1006E000529F900D1124092E000CAA0BBB0BA301E5
:1006F0009201281B390B4A0B5B0BCA01B90125017A
:100700000B2C000C66087708640D751D861D971D5F
:100710002E813F81032E000C440B550B0E94130FBA
:100720004F88588C698C7A8C420E531E641E751E3D
:100730008A859B85092E000CAA0BBB0B481659060F
:100740006A067B06D4F488859985092E000CAA0BCD
:10075000BB0B84159505A605B7057CF44C815D811E
:10076000E49EC001E59E900DF49E900D1124A80E0C
:10077000B91EB88AAF86D301C201F4019183808388
:10078000012E000C220B330B098B1A8B2B8B3C8B0D
:10079000DE8ACD8A8F8B988FA98FBA8FDF91CF9108
:1007A0001F910F91FF90EF90DF90CF90BF90AF908F
:1007B0009F908F907F906F905F904F900895CF9310
:1007C000DF93EC0181E077FF04C0719561957109B9
:1007D00080E06F3F710519F014F06FEF70E088232F
:1007E000B1F08A819B81DC01ED91FC910680F7815B
:1007F000E02D09958C819D81DC01ED91FC910680B5
:10080000F781E02D70E060E0DF91CF9109948C8159
:100810009D81DC01ED91FC910680F781E02D099529
:100820008A819B81E9CFCF93DF93EC018881998105
:10083000DC01ED91FC910480F581E02D09958A8120
:100840009B81DC01ED91FC910480F581E02D0995FF
:100850008C819D81DC01ED91FC910480F581E02D7E
:10086000DF91CF910994FC0182819381FC01E656CE
:10087000FF4F44918A579F4FFC0184918823F1F0E8
:100880008250282F30E0220F331FF901E65EFE4F21
:10089000A081B181EC91E42BEC939091680041E050
:1008A00050E001C0440F8A95EAF7892F842B80938A
:1008B000680024533E4FF901718360830895FC0161
:1008C00082810C94230162E0FC0182810C947A0104
:1008D000CF93DF93EC0188819981DC01ED91FC914C
:1008E0000480F581E02D099588819981E091D201FC
:1008F000F091D301EE0FFF1FEA5EFE4F6081718120
:10090000DC01ED91FC910084F185E02D09958A814F
:100910009B81DC01ED91FC910480F581E02D09952E
:100920008A819B81E091D201F091D301EE0FFF1FEC
:10093000EA5EFE4F60817181DC01ED91FC910084E3
:10094000F185E02D09958091D2019091D301FC01B0
:10095000EE0FFF1FE853FE4FD183C08301969093A3
:10096000D3018093D201DF91CF9108950F931F930C
:10097000CF93DF93EC018C81880F880F8C838A8161
:100980009B81DC01ED91FC910680F781E02D0995BA
:100990008C0188819981DC01ED91FC910680F781C1
:1009A000E02D0995000F111F082BEC81E02BEC8343
:1009B0004D815E816F817885EF70F0E0EA5FFE4FD8
:1009C0009081892F990F990BAA0BBB0B840F951F50
:1009D000A61FB71F8D839E83AF83B887DF91CF910A
:1009E0001F910F9108958091CA019091CB010097BA
:1009F00011F00C94B60408958091C8019091C9013A
:100A0000009711F00C94B6040895FC0182810C94B7
:100A10004C0161E0FC0182810C947A0108950895F3
:100A20000895FC0101900020E9F73197AF01481BC0
:100A3000590BBC0185EE91E00C94B70186E891E07A
:100A40000C941105CF93DF93862F0E949A02EC013C
:100A50000E941E058C0F9D1FDF91CF9108958F92EC
:100A60009F92AF92BF920F931F93CF93DF93CDB717
:100A7000DEB7A1970FB6F894DEBF0FBECDBF19A2A7
:100A8000423008F44AE08E010F5D1F4F842E912CF6
:100A9000B12CA12CA50194010E94F10EE62FB90101
:100AA000CA01EA30F4F4E05DD801EE938D01232B06
:100AB000242B252B79F790E080E0109719F0CD01D9
:100AC0000E941105A1960FB6F894DEBF0FBECDBFF0
:100AD000DF91CF911F910F91BF90AF909F908F901A
:100AE0000895E95CE1CFCF92DF92EF92FF92CF932E
:100AF000DF934115510551F485EE91E0DF91CF91DF
:100B0000FF90EF90DF90CF900C944D024A3051054A
:100B1000E1F44AE097FF19C06B017C018DE20E946D
:100B20009A02EC0166277727CB016C197D098E09A3
:100B30009F094AE00E942F058C0F9D1FDF91CF91E6
:100B4000FF90EF90DF90CF900895DF91CF91FF90CD
:100B5000EF90DF90CF900C942F05CF93DF93AB01F4
:100B6000BC01990F880B990B0E947305EC010E9440
:100B70001E058C0F9D1FDF91CF910895CB01BA0107
:100B80000C94AD05CF93DF93CB01BA01A9010E946C
:100B90007305EC010E941E058C0F9D1FDF91CF9104
:100BA0000895CB01BA01A9010C947305072E000C1E
:100BB000880B990B0C9473054115510521F485EEB2
:100BC00091E00C944D020C942F0590E080E00C9481
:100BD000DC05CF93DF93CB01BA01A9010E94DC05AC
:100BE000EC010E941E058C0F9D1FDF91CF9108958F
:100BF000CF93DF9390E080E00E94DC05EC010E943F
:100C00001E058C0F9D1FDF91CF91089570E090E03D
:100C100080E00C94DC05CF93DF9370E090E080E0FF
:100C20000E94DC05EC010E941E058C0F9D1FDF91C8
:100C3000CF910895CB01BA01A9010C94DC05CF93A3
:100C4000DF93D0E0C0E0009719F00E941105EC019D
:100C50000E941E058C0F9D1FDF91CF910895CB013F
:100C60000C941F0689E891E00C941F06CF93DF9344
:100C7000E9ECF2E01582168217821086C8EBD2E00A
:100C80001D821E821F82188685819681A781B0856C
:100C9000EDE9F2E016861586108A1786092E000CFB
:100CA000AA0BBB0B818B928BA38BB48B168A158AF4
:100CB000178A108E118E128E8D819E81AF81B8851C
:100CC000E2E8F2E016861586108A1786092E000CD7
:100CD000AA0BBB0B818B928BA38BB48B168A158AC4
:100CE000178A108E118E128E8AE991E0DF91CF91D2
:100CF0000C941F06CB01009711F00C94110590E0A5
:100D000080E008956091CE027091CF028091D00270
:100D10009091D1024AE050E00E94730587EB91E088
:100D20000E9411056091BD027091BE028091BF02C8
:100D30009091C0024AE050E00E9473050C941E0599
:100D4000EF92FF920F931F93CF93DF93CDB7DEB750
:100D50002A970FB6F894DEBF0FBECDBF0091A20355
:100D60001091A30300311105E0F47B01BC01CE0119
:100D700001960E94D412FA86E986C80101969093E2
:100D8000A3038093A2038AE0809FD001819FB00DCE
:100D90001124AE5FBC4FFE01319601900D928A95F1
:100DA000E1F72A960FB6F894DEBF0FBECDBFDF91F4
:100DB000CF911F910F91FF90EF9008954F925F9206
:100DC0006F927F928F929F92AF92BF92CF92DF925B
:100DD000EF92FF920F931F93CF936B017C01742EC0
:100DE000AC019B010E94A111882399F08DE991E04B
:100DF000CF911F910F91FF90EF90DF90CF90BF9018
:100E0000AF909F908F907F906F905F904F900C94D9
:100E1000110546015701E894B7F82FEF3FEF4FE770
:100E20005FE7C501B4010E94A11181110DC02FEF30
:100E30003FEF4FE75FE7C501B4010E94D70F1816D7
:100E40001CF481EA91E0D4CF2FEF3FEF4FE75FE44E
:100E5000C701B6010E942F1118161CF485EA91E013
:100E6000C7CF2FEF3FEF4FE75FECC701B6010E94FE
:100E7000D70F87FDF3CF20E030E0A901C701B6010D
:100E80000E94D70F10E000E087FF08C08DE20E94AB
:100E90009A028C01F7FAF094F7F8F094C0E060E061
:100EA00070E080E09FE37C1641F020E030E040E21B
:100EB00051E40E94DC0FCF5FF6CFA70196010E949C
:100EC0006B0F2B013C010E944E104B015C014AE06C
:100ED0000E942F057C01E00EF11ECC23B1F1C5016B
:100EE000B4010E947D109B01AC01C301B2010E94BC
:100EF0006A0F4B015C018EE20E949A02E80EF91E15
:100F0000C15018F120E030E040E251E4C501B401E5
:100F10000E9434112B013C010E944E104B01B12C58
:100F2000A12C4AE0C501B4010E942F05E80EF91E6C
:100F3000C501B4010E947D109B01AC01C301B20147
:100F40000E946A0F4B015C01DBCFC701CF911F915B
:100F50000F91FF90EF90DF90CF90BF90AF909F9058
:100F60008F907F906F905F904F900895CF93DF9315
:100F7000CB01BA01422F0E94DE06EC010E941E0541
:100F80008C0F9D1FDF91CF910895CB01BA01422FA5
:100F90000C94DE060C9442120C9442120C944212F1
:100FA0000C944212AF92BF92CF92DF92EF92FF92D7
:100FB0000F931F93CF93DF93CDB7DEB76E970FB626
:100FC000F894DEBF0FBECDBF02970CF482C08E0135
:100FD0000B5E1F4F88E0F80111928A95E9F7FB013B
:100FE00062817381CE0101967C010E94D412FE8E33
:100FF000ED8E7E019DE1E90EF11CA70169EA71E029
:101000008D8D9E8D0E94AE0E009751F00E151F051E
:1010100039F00E948B0EF801819391938F01EDCFEF
:10102000EB8CFC8C098D1A8DCF88D88CAD88BE884E
:10103000B0929E02A0929D02D092A002C0929F0206
:101040001093A2020093A102F092A402E092A302E4
:10105000B0928302A0928202D0928502C092840252
:101060001093870200938602F0928902E092880230
:101070008BEA91E00E941105B501BB0C880B990B1E
:101080004AE050E00E94730587EB91E00E94110551
:10109000B601DD0C880B990B4AE050E00E94730505
:1010A00087EB91E00E941105B801110F880B990B95
:1010B0004AE050E00E94730587EB91E00E94110521
:1010C0006AE070E0C7010E94AD058AE991E00E94E4
:1010D0001F066E960FB6F894DEBF0FBECDBFDF9130
:1010E000CF911F910F91FF90EF90DF90CF90BF9025
:1010F000AF9008950F931F93CF93DF9303970CF452
:1011000071C0EB018A819B810E948B0E8C018C81C6
:101110009D810E948B0EEC018091CE029091CF02B6
:10112000A091D002B091D1021092AB021092AA020B
:101130001092AD021092AC02092E000CAA0BBB0B50
:101140008093AE029093AF02A093B002B093B1022D
:101150001092B3021092B2021092B4021092B50231
:101160001092B6021092B7028091BD029091BE0219
:10117000A091BF02B091C0021092900210928F0213
:101180001092920210929102092E000CAA0BBB0B36
:101190008093930290939402A0939502B093960249
:1011A00010929802109297021092990210929A024D
:1011B00010929B0210929C021092A90210928E0231
:1011C000B8018CEE92E00E94DF03BE018AED92E04E
:1011D0000E94DF038AE991E0DF91CF911F910F9187
:1011E0000C941F06DF91CF911F910F9108950F93DB
:1011F0001F93CF93DF9303970CF494C0EB018A8184
:101200009B810E948B0E8C018C819D810E948B0E94
:10121000EC010E94AB016093D4017093D5018093DF
:10122000D6019093D7010115110509F075C02097DB
:1012300009F072C070E060E08CEE92E00E94DF0383
:1012400070E060E08AED92E00E94DF038091CE02C0
:101250009091CF02A091D002B091D1021092AD0234
:101260001092AC02092E000CAA0BBB0B8093AE02AD
:101270009093AF02A093B002B093B1021092B30268
:101280001092B2021092B4021092B5021092B602FD
:101290001092B7028091BD029091BE02A091BF0250
:1012A000B091C0021092920210929102092E000C8D
:1012B000AA0BBB0B8093930290939402A093950288
:1012C000B09396021092980210929702109299028F
:1012D00010929A0210929B0210929C021092A90204
:1012E00010928E022EE130E0C801B9010E94DD0E9D
:1012F0007093AB026093AA02CE01B9010E94DD0E89
:101300007093900260938F028AE991E0DF91CF9110
:101310001F910F910C941F0681E08093A902809386
:101320008E02E0CFDF91CF911F910F910895029728
:101330005CF0FB01828193810E948B0E0E9423014D
:101340006AE070E00C94AD0508950297ECF0FB01A3
:10135000828193810E948B0E8E3008F08E508770B0
:10136000806480937C0080917A00806480937A000E
:1013700080917A0086FDFCCF809178009091790071
:101380006AE070E00C94AD0508951F920F920FB6BD
:101390000F9211242F933F938F939F93AF93BF93FB
:1013A0008091E1019091E201A091E301B091E4010B
:1013B0003091E00123E0230F2D3758F50196A11D50
:1013C000B11D2093E0018093E1019093E201A0938D
:1013D000E301B093E4018091DC019091DD01A091E3
:1013E000DE01B091DF010196A11DB11D8093DC01EA
:1013F0009093DD01A093DE01B093DF01BF91AF9127
:101400009F918F913F912F910F900FBE0F901F9042
:10141000189526E8230F0296A11DB11DD2CF1F9269
:101420000F920FB60F9211242F933F934F935F9318
:101430006F937F938F939F93AF93BF93EF93FF939C
:1014400085EE91E00E942B02FF91EF91BF91AF9149
:101450009F918F917F916F915F914F913F912F91CC
:101460000F900FBE0F901F9018951F920F920FB6FE
:101470000F9211242F938F939F93EF93FF93E091FB
:10148000F501F091F6018081E091FB01F091FC0102
:1014900082FD1BC090818091FE018F5F8F73209130
:1014A000FF01821741F0E091FE01F0E0EB51FE4FA9
:1014B000958F8093FE01FF91EF919F918F912F91D6
:1014C0000F900FBE0F901F9018958081F4CF1F9240
:1014D0000F920FB60F9211242F933F934F935F9368
:1014E0006F937F938F939F93AF93BF93EF93FF93EC
:1014F000E091D001F091D101309709F00995FF9169
:10150000EF91BF91AF919F918F917F916F915F917B
:101510004F913F912F910F900FBE0F901F901895F4
:101520001F920F920FB60F9211242F933F934F9358
:101530005F936F937F938F939F93AF93BF93EF933B
:10154000FF93E091CE01F091CF01309709F009951A
:10155000FF91EF91BF91AF919F918F917F916F918B
:101560005F914F913F912F910F900FBE0F901F9061
:1015700018951F920F920FB60F9211242F933F933D
:101580004F935F936F937F938F939F93AF93BF938B
:10159000EF93FF93E091CC01F091CD01309709F0EA
:1015A0000995FF91EF91BF91AF919F918F917F919D
:1015B0006F915F914F913F912F910F900FBE0F90C0
:1015C0001F901895CF93DF93E5EEF1E0138212821E
:1015D00088EE93E0A0E0B0E084839583A683B78390
:1015E00084E291E09183808385EC90E09587848705
:1015F00084EC90E09787868780EC90E0918B808BDD
:1016000081EC90E0938B828B82EC90E0958B848BC5
:1016100086EC90E0978B868B118E128E138E148E33
:101620008CE591E09093E7038093E603EEEFF2E020
:1016300011821082138212821092A3031092A203CD
:101640001092E5031092E4034AEF52E08DE090E03F
:10165000DA0113969C938E93129760E571E06D9377
:101660007C93C6EFD2E08AE090E09B838A8324E4F7
:1016700031E039832883A2EFB2E0E6E0F0E0139690
:10168000FC93EE93129711963C932E93ECEEF2E0BE
:1016900051834083D383C283B583A48348EE52E051
:1016A000ECE0F0E0DA011396FC93EE9312976D9361
:1016B0007C93C4EED2E069E070E07B836A83398377
:1016C0002883A0EEB2E065E070E013967C936E9301
:1016D000129711963C932E93EAEDF2E051834083EA
:1016E000D383C283B583A483C6EDD2E022E030E089
:1016F0003B832A8326E331E039832883A2EDB2E0DD
:1017000043E050E013965C934E93129711963C93EE
:101710002E93E9ECF2E0D183C083B383A2831482D9
:101720001582168217821086C5ECD2E042E150E0A5
:101730005B834A8339832883A1ECB2E043E150E024
:1017400013965C934E93129711963C932E93E8EB6D
:10175000F2E0D183C083B383A28314821582168200
:1017600017821086EDE9F2E06EE170E0718360832C
:1017700093838283158214829783868341E05FEF8F
:10178000518740872FEF30E03387228714861686F3
:101790001586108A1786118A128A138A148A168A65
:1017A000158A178A108E118E128EE2E8F2E071838C
:1017B0006083938382831582148297838683518703
:1017C000408733872287148616861586108A1786E7
:1017D000118A128A138A148A168A158A178A108E19
:1017E000118E128EDF91CF910895CF93DF93CDB7F5
:1017F000DEB7A2970FB6F894DEBF0FBECDBF7894C8
:1018000084B5826084BD84B5816084BD85B5826005
:1018100085BD85B5816085BD80916E0081608093B6
:101820006E0010928100809181008260809381001F
:10183000809181008160809381008091800081602F
:10184000809380008091B10084608093B10080918A
:10185000B00081608093B00080917A0084608093B2
:101860007A0080917A00826080937A0080917A0079
:10187000816080937A0080917A00806880937A00FA
:101880001092C10060E071EE80E090E00E948C0058
:101890008091D2019091D301029721F089EC92E0DE
:1018A0000E9468048091D2019091D301029721F0A7
:1018B00088EB92E00E9468048CEE92E00E94130490
:1018C0008091EC029091ED02DC01ED91FC9106809B
:1018D000F781E02D61E070E009958AED92E00E94C9
:1018E00013048091DA029091DB02DC01ED91FC910E
:1018F0000680F781E02D61E070E009958091CE02CD
:101900009091CF02A091D002B091D1021092AB027F
:101910001092AA021092AD021092AC02092E000C95
:10192000AA0BBB0B8093AE029093AF02A093B002C0
:10193000B093B1021092B3021092B2021092B402AC
:101940001092B5021092B6021092B7028091BD02B9
:101950009091BE02A091BF02B091C002109290027D
:1019600010928F021092920210929102092E000C96
:10197000AA0BBB0B8093930290939402A0939502C1
:10198000B0939602109298021092970210929902C8
:1019900010929A0210929B0210929C0286EE93E0A3
:1019A0009093FF028093FE0282E396E090930103FE
:1019B0008093000365EA79E089EB91E00E94A0063C
:1019C00067E979E08BEB91E00E94A00662E876E09F
:1019D0008DEB91E00E94A00666E376E08FEB91E04C
:1019E0000E94A00667EF78E081EC91E00E94A006DB
:1019F0006AE778E083EC91E00E94A00662ED77E070
:101A000085EC91E00E94A0069AE0592E20E0622E1B
:101A100020E0722E8091FE029091FF02DC01ED9198
:101A2000FC910680F781E02D0995181619060CF037
:101A30008AC08091FE029091FF02DC01ED91FC9141
:101A40000084F185E02D09958A3021F32091E4038B
:101A50003091E5038D3009F066C0C901019690937D
:101A6000E5038093E4032C553C4FF901108267EBAA
:101A700071E084EA93E00E94A90E9A838983CE01E3
:101A800001967C0110E000E0382E4F2CD7018D919B
:101A90009D917D01892B19F00F30110549F5A0901A
:101AA000A203B090A30389809A808EEFC82E82E0B3
:101AB000D82EF12CE12CAE14BF0451F1B6016C5FAD
:101AC0007F4FC4010E94CB12FAE0CF0ED11C892BAC
:101AD000D9F45E9CF0015F9CF00D1124E250FD4FA3
:101AE0000484F585E02D632D742DC801099516C079
:101AF0000F5F1F4F67EB71E090E080E00E94A90E3E
:101B0000F70191838083C2CF2FEFE21AF20AD3CF7D
:101B1000E0910003F0910103309729F71092E5035B
:101B20001092E40377CFA9014F5F5F4F5093E50315
:101B30004093E4032C553C4FD9018C93403451051C
:101B40000CF468CFEBCF0E94AB010091D80110914B
:101B5000D9012091DA013091DB01601B710B820BFE
:101B6000930B0E947D1020E030E044E052E40E949C
:101B70002F1118160CF086C00E94AB016093D8019B
:101B80007093D9018093DA019093DB011AA219A214
:101B90001A8219826091CE027091CF028091D00298
:101BA0009091D1022091A9022111A5C02091B202E9
:101BB0003091B302232B01F11092AB021092AA02D2
:101BC0001092AD021092AC02072E000C880B990BFC
:101BD0006093AE027093AF028093B0029093B10213
:101BE0001092B3021092B2021092B4021092B50297
:101BF0001092B6021092B7026091BD027091BE02BF
:101C00008091BF029091C00220918E0221117BC071
:101C10002091970230919802232B01F110929002AB
:101C200010928F021092920210929102072E000CD5
:101C3000880B990B609393027093940280939502A2
:101C40009093960210929802109297021092990225
:101C500010929A0210929B0210929C028091A9020B
:101C6000882331F069A17AA18CEE92E00E94DF0313
:101C700080918E02882331F069817A818AED92E029
:101C80000E94DF030E94AB010091D4011091D501A5
:101C90002091D6013091D701601B710B820B930B01
:101CA000693B7B4081059105D0F00E94AB016093B8
:101CB000D4017093D5018093D6019093D70170E041
:101CC00060E08CEE92E00E94DF0370E060E08AED5D
:101CD00092E00E94DF031092A90210928E0261141A
:101CE000710409F497CE0E942102882309F492CE50
:101CF0000E9400008FCEAE014F5D5F4F8DE992E0F4
:101D00000E94400379CFAE014F5F5F4F82E892E0BF
:101D10000E944003A3CFFC0188279927E8942191D2
:101D20002032E9F3293010F02E30C8F32B3241F085
:101D30002D3239F4689404C00E94D50E820F911D93
:101D4000219120532A30C0F31EF4909581959F4F26
:101D5000089548EE53E00E94AE0E0895FA01A19155
:101D6000B081009719F41097E1F0CD01DC01CD01AD
:101D70000D90002011F4C00113C0FB01219122231A
:101D800019F02015D9F7F3CFFB012191201519F493
:101D90001E92119606C02223C1F70D900020A1F7D4
:101DA000D001FA01A193B08308957AE0979F902D16
:101DB000879F802D910D1124089597FB072E16F40F
:101DC000009407D077FD09D00E94500F07FC05D082
:101DD0003EF4909581959F4F0895709561957F4F42
:101DE0000895A1E21A2EAA1BBB1BFD010DC0AA1F5C
:101DF000BB1FEE1FFF1FA217B307E407F50720F074
:101E0000A21BB30BE40BF50B661F771F881F991FEE
:101E10001A9469F760957095809590959B01AC0137
:101E2000BD01CF010895052E97FB1EF400940E947A
:101E30002A0F57FD07D00E94F10E07FC03D04EF485
:101E40000C942A0F50954095309521953F4F4F4F58
:101E50005F4F089590958095709561957F4F8F4F56
:101E60009F4F08950E943A0F332312F48A1B9B0B55
:101E70000C944B0FA29FB001B39FC001A39F700DA4
:101E8000811D1124911DB29F700D811D1124911D82
:101E900008950E943A0FB7FF0895821B930B08958F
:101EA000AA1BBB1B51E107C0AA1FBB1FA617B70780
:101EB00010F0A61BB70B881F991F5A95A9F780959C
:101EC0009095BC01CD010895EE0FFF1F0590F49190
:101ED000E02D09945058BB27AA270E94820F0C942A
:101EE000F5100E94E71038F00E94EE1020F039F44F
:101EF0009F3F19F426F40C94E4100EF4E095E7FBF0
:101F00000C94DE10E92F0E94061158F3BA176207ED
:101F100073078407950720F079F4A6F50C9428112F
:101F20000EF4E0950B2EBA2FA02D0B01B9019001F4
:101F30000C01CA01A0011124FF27591B99F0593F38
:101F400050F4503E68F11A16F040A22F232F342F80
:101F50004427585FF3CF469537952795A795F040CE
:101F60005395C9F77EF41F16BA0B620B730B840BE3
:101F7000BAF09150A1F0FF0FBB1F661F771F881F9B
:101F8000C2F70EC0BA0F621F731F841F48F48795F3
:101F900077956795B795F7959E3F08F0B0CF9395E5
:101FA000880F08F09927EE0F9795879508950E945E
:101FB000BA1008F481E008950E94F00F0C94F51017
:101FC0000E94EE1058F00E94E71040F029F45F3FA5
:101FD00029F00C94DE1051110C9429110C94E4108A
:101FE0000E94061168F39923B1F3552391F3951BD1
:101FF000550BBB27AA2762177307840738F09F5F2A
:102000005F4F220F331F441FAA1FA9F335D00E2E96
:102010003AF0E0E832D091505040E695001CCAF703
:102020002BD0FE2F29D0660F771F881FBB1F2617C6
:1020300037074807AB07B0E809F0BB0B802DBF019D
:10204000FF2793585F4F3AF09E3F510578F00C946C
:10205000DE100C9429115F3FE4F3983ED4F386958B
:1020600077956795B795F7959F5FC9F7880F911D8D
:102070009695879597F90895E1E0660F771F881F79
:10208000BB1F621773078407BA0720F0621B730B2C
:10209000840BBA0BEE1F88F7E09508950E940E118D
:1020A00088F09F5798F0B92F9927B751B0F0E1F019
:1020B000660F771F881F991F1AF0BA95C9F714C0C9
:1020C000B13091F00E942811B1E008950C942811CC
:1020D000672F782F8827B85F39F0B93FCCF3869502
:1020E00077956795B395D9F73EF49095809570955F
:1020F00061957F4F8F4F9F4F0895E89409C097FBDC
:102100003EF490958095709561957F4F8F4F9F4FCE
:102110009923A9F0F92F96E9BB279395F695879512
:1021200077956795B795F111F8CFFAF4BB0F11F4D5
:1021300060FF1BC06F5F7F4F8F4F9F4F16C088237C
:1021400011F096E911C0772321F09EE8872F762FB2
:1021500005C0662371F096E8862F70E060E02AF0F3
:102160009A95660F771F881FDAF7880F96958795DF
:1021700097F90895990F0008550FAA0BE0E8FEEFB4
:1021800016161706E807F907C0F012161306E4073B
:10219000F50798F0621B730B840B950B39F40A2634
:1021A00061F0232B242B252B21F408950A2609F412
:1021B000A140A6958FEF811D811D089597F99F6716
:1021C00080E870E060E008959FEF80EC08950024BF
:1021D0000A941616170618060906089500240A948C
:1021E00012161306140605060895092E0394000C12
:1021F00011F4882352F0BB0F40F4BF2B11F460FFA1
:1022000004C06F5F7F4F8F4F9F4F089557FD9058C9
:10221000440F551F59F05F3F71F04795880F97FBAA
:10222000991F61F09F3F79F0879508951216130664
:102230001406551FF2CF4695F1DF08C01616170693
:102240001806991FF1CF86957105610508940895C8
:10225000E894BB2766277727CB0197F908950E945A
:10226000BA1008F48FEF08950E9447110C94F510EE
:102270000E94E71038F00E94EE1020F0952311F034
:102280000C94DE100C94E41011240C9429110E947B
:10229000061170F3959FC1F3950F50E0551F629F93
:1022A000F001729FBB27F00DB11D639FAA27F00DAF
:1022B000B11DAA1F649F6627B00DA11D661F829FD6
:1022C0002227B00DA11D621F739FB00DA11D621FBB
:1022D000839FA00D611D221F749F3327A00D611DD8
:1022E000231F849F600D211D822F762F6A2F1124BA
:1022F0009F5750409AF0F1F088234AF0EE0FFF1FED
:10230000BB1F661F771F881F91505040A9F79E3F43
:10231000510580F00C94DE100C9429115F3FE4F31A
:10232000983ED4F3869577956795B795F795E79599
:102330009F5FC1F7FE2B880F911D9695879597F9A2
:1023400008950E94BA10880B990B08950F931F935C
:10235000CF93DF938230910510F482E090E0E0911A
:10236000EC03F091ED0330E020E0B0E0A0E0309726
:1023700099F42115310509F44AC0281B390B243082
:102380003105D8F58A819B816115710589F1FB01C1
:1023900093838283FE0111C04081518102811381A8
:1023A00048175907E0F04817590799F4109761F05A
:1023B00012960C93129713961C933296CF01DF91CD
:1023C000CF911F910F9108950093EC031093ED03AB
:1023D000F4CF2115310551F04217530738F0A90108
:1023E000DB019A01BD01DF01F801C1CFEF01F9CF97
:1023F0009093ED038093EC03CDCFFE01E20FF31F2A
:10240000819391932250310939832883D7CF20912A
:10241000EA033091EB03232B41F420910201309128
:1024200003013093EB032093EA03209100013091E4
:1024300001012115310541F42DB73EB7409104014A
:1024400050910501241B350BE091EA03F091EB0359
:10245000E217F307A0F42E1B3F0B2817390778F07B
:10246000AC014E5F5F4F2417350748F04E0F5F1FDA
:102470005093EB034093EA03819391939FCFF0E055
:10248000E0E09CCFCF93DF930097E9F0FC01329717
:1024900013821282A091EC03B091ED03ED0130E0C4
:1024A00020E01097A1F420813181820F931F2091A9
:1024B000EA033091EB032817390709F061C0F09364
:1024C000EB03E093EA03DF91CF910895EA01CE1781
:1024D000DF07E8F54A815B819E0141155105B1F79F
:1024E000E901FB83EA8349915991C40FD51FEC1789
:1024F000FD0761F4808191810296840F951FE901A7
:1025000099838883828193819B838A83F0E0E0E0D2
:1025100012968D919C9113970097B9F52D913C914E
:102520001197CD010296820F931F2091EA033091FB
:10253000EB032817390739F6309751F51092ED0360
:102540001092EC03B093EB03A093EA03BCCFD383C8
:10255000C28340815181840F951FC817D90761F448
:102560004E5F5F4F88819981480F591F5183408387
:102570008A819B81938382832115310509F0B0CF35
:10258000F093ED03E093EC039ECFFD01DC01C0CF9F
:1025900013821282D7CFFB01DC018D91019080194B
:1025A0000110D9F3990B0895FB01DC0101900D9204
:0A25B0000020E1F70895F894FFCF32
:1025BA000000EE0380000001FF00FF00000101009F
:1025CA0000FF00FF0100FC04F3046B006C006D00C7
:1025DA00000000004D02B701E4019F021502F30159
:1025EA000702000000001005D00763045F043304EB
:1025FA00000000000F05CA073B03D80200000000D4
:10260A000F05CE0709050505000000000E05CC07D9
:10261A00D402D002CC027A06C9020606D605E5051E
:10262A00D1051A06C5072F0622050B06BE05F805B1
:10263A00C205E905B6070D0A00556E6B6E6F776E17
:10264A0020636F6D6D616E642E004F4B006E616E7C
:10265A0000696E66006F7666003A0050494420555C
:10266A007064617465643A200061006400650072F8
:08267A00006D006F0075000007
:00000001FF
